{
  "contractName": "Lottery",
  "abi": [
    {
      "inputs": [
        {
          "internalType": "address",
          "name": "_priceFeedAddress",
          "type": "address"
        }
      ],
      "stateMutability": "nonpayable",
      "type": "constructor"
    },
    {
      "anonymous": false,
      "inputs": [
        {
          "indexed": true,
          "internalType": "address",
          "name": "previousOwner",
          "type": "address"
        },
        {
          "indexed": true,
          "internalType": "address",
          "name": "newOwner",
          "type": "address"
        }
      ],
      "name": "OwnershipTransferred",
      "type": "event"
    },
    {
      "inputs": [],
      "name": "costToEnter",
      "outputs": [
        {
          "internalType": "uint256",
          "name": "",
          "type": "uint256"
        }
      ],
      "stateMutability": "view",
      "type": "function"
    },
    {
      "inputs": [],
      "name": "fee",
      "outputs": [
        {
          "internalType": "uint256",
          "name": "",
          "type": "uint256"
        }
      ],
      "stateMutability": "view",
      "type": "function"
    },
    {
      "inputs": [],
      "name": "lottery_state",
      "outputs": [
        {
          "internalType": "enum Lottery.LOTTERY_STATE",
          "name": "",
          "type": "uint8"
        }
      ],
      "stateMutability": "view",
      "type": "function"
    },
    {
      "inputs": [],
      "name": "owner",
      "outputs": [
        {
          "internalType": "address",
          "name": "",
          "type": "address"
        }
      ],
      "stateMutability": "view",
      "type": "function"
    },
    {
      "inputs": [
        {
          "internalType": "uint256",
          "name": "",
          "type": "uint256"
        }
      ],
      "name": "players",
      "outputs": [
        {
          "internalType": "address payable",
          "name": "",
          "type": "address"
        }
      ],
      "stateMutability": "view",
      "type": "function"
    },
    {
      "inputs": [],
      "name": "renounceOwnership",
      "outputs": [],
      "stateMutability": "nonpayable",
      "type": "function"
    },
    {
      "inputs": [
        {
          "internalType": "address",
          "name": "newOwner",
          "type": "address"
        }
      ],
      "name": "transferOwnership",
      "outputs": [],
      "stateMutability": "nonpayable",
      "type": "function"
    },
    {
      "inputs": [],
      "name": "enter",
      "outputs": [],
      "stateMutability": "payable",
      "type": "function"
    },
    {
      "inputs": [],
      "name": "getEntryFee",
      "outputs": [
        {
          "internalType": "uint256",
          "name": "",
          "type": "uint256"
        }
      ],
      "stateMutability": "nonpayable",
      "type": "function"
    },
    {
      "inputs": [],
      "name": "startLottery",
      "outputs": [],
      "stateMutability": "nonpayable",
      "type": "function"
    },
    {
      "inputs": [],
      "name": "endLottery",
      "outputs": [],
      "stateMutability": "nonpayable",
      "type": "function"
    }
  ],
  "bytecode": "0x60806040523480156200001157600080fd5b50604051620011bc380380620011bc8339818101604052810190620000379190620001e4565b620000576200004b6200010160201b60201c565b6200010960201b60201c565b6802b5e3af16b188000060038190555080600460006101000a81548173ffffffffffffffffffffffffffffffffffffffff021916908373ffffffffffffffffffffffffffffffffffffffff1602179055506001600460146101000a81548160ff02191690836002811115620000f5577f4e487b7100000000000000000000000000000000000000000000000000000000600052602160045260246000fd5b0217905550506200025e565b600033905090565b60008060009054906101000a900473ffffffffffffffffffffffffffffffffffffffff169050816000806101000a81548173ffffffffffffffffffffffffffffffffffffffff021916908373ffffffffffffffffffffffffffffffffffffffff1602179055508173ffffffffffffffffffffffffffffffffffffffff168173ffffffffffffffffffffffffffffffffffffffff167f8be0079c531659141344cd1fd0a4f28419497f9722a3daafe3b4186f6b6457e060405160405180910390a35050565b600081519050620001de8162000244565b92915050565b600060208284031215620001f757600080fd5b60006200020784828501620001cd565b91505092915050565b60006200021d8262000224565b9050919050565b600073ffffffffffffffffffffffffffffffffffffffff82169050919050565b6200024f8162000210565b81146200025b57600080fd5b50565b610f4e806200026e6000396000f3fe60806040526004361061009c5760003560e01c80638da5cb5b116100645780638da5cb5b1461013c578063ddca3f4314610167578063e586a4f014610192578063e97dcb62146101bd578063f2fde38b146101c7578063f71d96cb146101f05761009c565b806314155419146100a15780631593a8c7146100cc578063160344e2146100e3578063715018a6146100fa5780638144799914610111575b600080fd5b3480156100ad57600080fd5b506100b661022d565b6040516100c39190610cd1565b60405180910390f35b3480156100d857600080fd5b506100e1610233565b005b3480156100ef57600080fd5b506100f86102b1565b005b34801561010657600080fd5b5061010f610442565b005b34801561011d57600080fd5b506101266104ca565b6040516101339190610c16565b60405180910390f35b34801561014857600080fd5b506101516104dd565b60405161015e9190610be0565b60405180910390f35b34801561017357600080fd5b5061017c610506565b6040516101899190610cd1565b60405180910390f35b34801561019e57600080fd5b506101a761050c565b6040516101b49190610cd1565b60405180910390f35b6101c56105fb565b005b3480156101d357600080fd5b506101ee60048036038101906101e99190610975565b610709565b005b3480156101fc57600080fd5b506102176004803603810190610212919061099e565b610801565b6040516102249190610bfb565b60405180910390f35b60015481565b61023b610840565b73ffffffffffffffffffffffffffffffffffffffff166102596104dd565b73ffffffffffffffffffffffffffffffffffffffff16146102af576040517f08c379a00000000000000000000000000000000000000000000000000000000081526004016102a690610c71565b60405180910390fd5b565b6102b9610840565b73ffffffffffffffffffffffffffffffffffffffff166102d76104dd565b73ffffffffffffffffffffffffffffffffffffffff161461032d576040517f08c379a000000000000000000000000000000000000000000000000000000000815260040161032490610c71565b60405180910390fd5b60016002811115610367577f4e487b7100000000000000000000000000000000000000000000000000000000600052602160045260246000fd5b600460149054906101000a900460ff1660028111156103af577f4e487b7100000000000000000000000000000000000000000000000000000000600052602160045260246000fd5b146103ef576040517f08c379a00000000000000000000000000000000000000000000000000000000081526004016103e690610c51565b60405180910390fd5b6000600460146101000a81548160ff0219169083600281111561043b577f4e487b7100000000000000000000000000000000000000000000000000000000600052602160045260246000fd5b0217905550565b61044a610840565b73ffffffffffffffffffffffffffffffffffffffff166104686104dd565b73ffffffffffffffffffffffffffffffffffffffff16146104be576040517f08c379a00000000000000000000000000000000000000000000000000000000081526004016104b590610c71565b60405180910390fd5b6104c86000610848565b565b600460149054906101000a900460ff1681565b60008060009054906101000a900473ffffffffffffffffffffffffffffffffffffffff16905090565b60035481565b600080600460009054906101000a900473ffffffffffffffffffffffffffffffffffffffff1673ffffffffffffffffffffffffffffffffffffffff1663feaf968c6040518163ffffffff1660e01b815260040160a06040518083038186803b15801561057757600080fd5b505afa15801561058b573d6000803e3d6000fd5b505050506040513d601f19601f820116820180604052508101906105af91906109c7565b50505091505060006402540be400826105c89190610d2e565b905080670de0b6b3a76400006003546105e19190610d2e565b6105eb9190610cfd565b6001819055506001549250505090565b60006002811115610635577f4e487b7100000000000000000000000000000000000000000000000000000000600052602160045260246000fd5b600460149054906101000a900460ff16600281111561067d577f4e487b7100000000000000000000000000000000000000000000000000000000600052602160045260246000fd5b146106bd576040517f08c379a00000000000000000000000000000000000000000000000000000000081526004016106b490610cb1565b60405180910390fd5b6106c561050c565b341015610707576040517f08c379a00000000000000000000000000000000000000000000000000000000081526004016106fe90610c91565b60405180910390fd5b565b610711610840565b73ffffffffffffffffffffffffffffffffffffffff1661072f6104dd565b73ffffffffffffffffffffffffffffffffffffffff1614610785576040517f08c379a000000000000000000000000000000000000000000000000000000000815260040161077c90610c71565b60405180910390fd5b600073ffffffffffffffffffffffffffffffffffffffff168173ffffffffffffffffffffffffffffffffffffffff1614156107f5576040517f08c379a00000000000000000000000000000000000000000000000000000000081526004016107ec90610c31565b60405180910390fd5b6107fe81610848565b50565b6002818154811061081157600080fd5b906000526020600020016000915054906101000a900473ffffffffffffffffffffffffffffffffffffffff1681565b600033905090565b60008060009054906101000a900473ffffffffffffffffffffffffffffffffffffffff169050816000806101000a81548173ffffffffffffffffffffffffffffffffffffffff021916908373ffffffffffffffffffffffffffffffffffffffff1602179055508173ffffffffffffffffffffffffffffffffffffffff168173ffffffffffffffffffffffffffffffffffffffff167f8be0079c531659141344cd1fd0a4f28419497f9722a3daafe3b4186f6b6457e060405160405180910390a35050565b60008135905061091b81610ebc565b92915050565b60008151905061093081610ed3565b92915050565b60008135905061094581610eea565b92915050565b60008151905061095a81610eea565b92915050565b60008151905061096f81610f01565b92915050565b60006020828403121561098757600080fd5b60006109958482850161090c565b91505092915050565b6000602082840312156109b057600080fd5b60006109be84828501610936565b91505092915050565b600080600080600060a086880312156109df57600080fd5b60006109ed88828901610960565b95505060206109fe88828901610921565b9450506040610a0f8882890161094b565b9350506060610a208882890161094b565b9250506080610a3188828901610960565b9150509295509295909350565b610a4781610d9a565b82525050565b610a5681610d88565b82525050565b610a6581610e09565b82525050565b6000610a78602683610cec565b91507f4f776e61626c653a206e6577206f776e657220697320746865207a65726f206160008301527f64647265737300000000000000000000000000000000000000000000000000006020830152604082019050919050565b6000610ade601f83610cec565b91507f63616e742073746172742061206e6577206c6f747465727920796574212121006000830152602082019050919050565b6000610b1e602083610cec565b91507f4f776e61626c653a2063616c6c6572206973206e6f7420746865206f776e65726000830152602082019050919050565b6000610b5e601b83610cec565b91507f416d6f756e74206973206c657373207468656e204665652121213100000000006000830152602082019050919050565b6000610b9e601983610cec565b91507f6c6f747465727920697320676f696e67204f4e205741495421000000000000006000830152602082019050919050565b610bda81610de9565b82525050565b6000602082019050610bf56000830184610a4d565b92915050565b6000602082019050610c106000830184610a3e565b92915050565b6000602082019050610c2b6000830184610a5c565b92915050565b60006020820190508181036000830152610c4a81610a6b565b9050919050565b60006020820190508181036000830152610c6a81610ad1565b9050919050565b60006020820190508181036000830152610c8a81610b11565b9050919050565b60006020820190508181036000830152610caa81610b51565b9050919050565b60006020820190508181036000830152610cca81610b91565b9050919050565b6000602082019050610ce66000830184610bd1565b92915050565b600082825260208201905092915050565b6000610d0882610de9565b9150610d1383610de9565b925082610d2357610d22610e4a565b5b828204905092915050565b6000610d3982610de9565b9150610d4483610de9565b9250817fffffffffffffffffffffffffffffffffffffffffffffffffffffffffffffffff0483118215151615610d7d57610d7c610e1b565b5b828202905092915050565b6000610d9382610dc9565b9050919050565b6000610da582610dc9565b9050919050565b6000819050610dba82610ea8565b919050565b6000819050919050565b600073ffffffffffffffffffffffffffffffffffffffff82169050919050565b6000819050919050565b600069ffffffffffffffffffff82169050919050565b6000610e1482610dac565b9050919050565b7f4e487b7100000000000000000000000000000000000000000000000000000000600052601160045260246000fd5b7f4e487b7100000000000000000000000000000000000000000000000000000000600052601260045260246000fd5b7f4e487b7100000000000000000000000000000000000000000000000000000000600052602160045260246000fd5b60038110610eb957610eb8610e79565b5b50565b610ec581610d88565b8114610ed057600080fd5b50565b610edc81610dbf565b8114610ee757600080fd5b50565b610ef381610de9565b8114610efe57600080fd5b50565b610f0a81610df3565b8114610f1557600080fd5b5056fea26469706673582212208da64ef4e81ffea49aa892543a260c69218a569a8c802cbf50a22f889fc137c864736f6c63430008000033",
  "immutableReferences": {},
  "source": "// SPDX-License-Identifier: MIT\r\npragma solidity >=0.4.22 <0.9.0;\r\n\r\nimport \"@chainlink/contracts/src/v0.8/interfaces/AggregatorV3Interface.sol\";\r\nimport \"@openzeppelin/contracts/access/Ownable.sol\";\r\ncontract Lottery is Ownable{\r\n    uint public costToEnter;\r\n    address payable[] public players;\r\n    uint256 public fee;\r\n    AggregatorV3Interface internal ethUsdPriceFeed;\r\n    enum LOTTERY_STATE{\r\n        OPEN,\r\n        CLOSED,\r\n        CALCULATING_WINNER\r\n    }\r\n    LOTTERY_STATE public lottery_state;\r\n    constructor(address _priceFeedAddress)public {\r\n        fee = 50*(10**18);\r\n        ethUsdPriceFeed = AggregatorV3Interface(_priceFeedAddress);\r\n    lottery_state = LOTTERY_STATE.CLOSED;\r\n    }\r\n    function enter()public payable{\r\n        require(lottery_state == LOTTERY_STATE.OPEN,'lottery is going ON WAIT!');\r\n        require(msg.value>= getEntryFee(),'Amount is less then Fee!!!1');\r\n        \r\n    }\r\n    function getEntryFee()public returns(uint){\r\n        (, int price,,,) = ethUsdPriceFeed.latestRoundData();\r\n    uint256 Adjustprice= uint256(price) * 10**10;\r\n    costToEnter = (fee *10**18) / Adjustprice;\r\n    return costToEnter;\r\n    }\r\n    function startLottery()public onlyOwner{\r\n        require(lottery_state == LOTTERY_STATE.CLOSED,'cant start a new lottery yet!!!');\r\n        lottery_state = LOTTERY_STATE.OPEN;\r\n    }\r\n    function endLottery()public onlyOwner{\r\n\r\n    }\r\n}",
  "sourcePath": "D:\\BlockChainLearning\\DecentralizedLotteryApp\\contracts\\Lottery.sol",
  "compiler": {
    "name": "solc",
    "version": "0.8.0+commit.c7dfd78e.Emscripten.clang"
  },
  "schemaVersion": "3.4.3",
  "updatedAt": "2021-10-10T10:25:28.194Z",
  "devdoc": {
    "kind": "dev",
    "methods": {
      "owner()": {
        "details": "Returns the address of the current owner."
      },
      "renounceOwnership()": {
        "details": "Leaves the contract without owner. It will not be possible to call `onlyOwner` functions anymore. Can only be called by the current owner. NOTE: Renouncing ownership will leave the contract without an owner, thereby removing any functionality that is only available to the owner."
      },
      "transferOwnership(address)": {
        "details": "Transfers ownership of the contract to a new account (`newOwner`). Can only be called by the current owner."
      }
    },
    "version": 1
  },
  "userdoc": {
    "kind": "user",
    "methods": {},
    "version": 1
  }
}